{
  "_format": "hh-sol-artifact-1",
  "contractName": "FileStorage",
  "sourceName": "contracts/FileStorage.sol",
  "abi": [
    {
      "inputs": [
        {
          "internalType": "uint256",
          "name": "",
          "type": "uint256"
        }
      ],
      "name": "files",
      "outputs": [
        {
          "internalType": "string",
          "name": "cid",
          "type": "string"
        },
        {
          "internalType": "string",
          "name": "name",
          "type": "string"
        },
        {
          "internalType": "address",
          "name": "uploader",
          "type": "address"
        },
        {
          "internalType": "uint256",
          "name": "timestamp",
          "type": "uint256"
        }
      ],
      "stateMutability": "view",
      "type": "function"
    },
    {
      "inputs": [
        {
          "internalType": "uint256",
          "name": "index",
          "type": "uint256"
        }
      ],
      "name": "getFile",
      "outputs": [
        {
          "internalType": "string",
          "name": "",
          "type": "string"
        },
        {
          "internalType": "string",
          "name": "",
          "type": "string"
        },
        {
          "internalType": "address",
          "name": "",
          "type": "address"
        },
        {
          "internalType": "uint256",
          "name": "",
          "type": "uint256"
        }
      ],
      "stateMutability": "view",
      "type": "function"
    },
    {
      "inputs": [],
      "name": "getTotalFiles",
      "outputs": [
        {
          "internalType": "uint256",
          "name": "",
          "type": "uint256"
        }
      ],
      "stateMutability": "view",
      "type": "function"
    },
    {
      "inputs": [
        {
          "internalType": "string",
          "name": "_cid",
          "type": "string"
        },
        {
          "internalType": "string",
          "name": "_name",
          "type": "string"
        }
      ],
      "name": "uploadFile",
      "outputs": [],
      "stateMutability": "nonpayable",
      "type": "function"
    }
  ],
  "bytecode": "0x6080604052348015600f57600080fd5b50610be58061001f6000396000f3fe608060405234801561001057600080fd5b506004361061004c5760003560e01c80632bfda31314610051578063766e0d3314610084578063996d50bf146100a2578063f4c714b4146100be575b600080fd5b61006b6004803603810190610066919061057a565b6100f1565b60405161007b9493929190610687565b60405180910390f35b61008c6102cf565b60405161009991906106da565b60405180910390f35b6100bc60048036038101906100b7919061082a565b6102db565b005b6100d860048036038101906100d3919061057a565b6103c0565b6040516100e89493929190610687565b60405180910390f35b606080600080600080868154811061010c5761010b6108a2565b5b906000526020600020906004020160405180608001604052908160008201805461013590610900565b80601f016020809104026020016040519081016040528092919081815260200182805461016190610900565b80156101ae5780601f10610183576101008083540402835291602001916101ae565b820191906000526020600020905b81548152906001019060200180831161019157829003601f168201915b505050505081526020016001820180546101c790610900565b80601f01602080910402602001604051908101604052809291908181526020018280546101f390610900565b80156102405780601f1061021557610100808354040283529160200191610240565b820191906000526020600020905b81548152906001019060200180831161022357829003601f168201915b505050505081526020016002820160009054906101000a900473ffffffffffffffffffffffffffffffffffffffff1673ffffffffffffffffffffffffffffffffffffffff1673ffffffffffffffffffffffffffffffffffffffff168152602001600382015481525050905080600001518160200151826040015183606001519450945094509450509193509193565b60008080549050905090565b600060405180608001604052808481526020018381526020013373ffffffffffffffffffffffffffffffffffffffff16815260200142815250908060018154018082558091505060019003906000526020600020906004020160009091909190915060008201518160000190816103529190610add565b5060208201518160010190816103689190610add565b5060408201518160020160006101000a81548173ffffffffffffffffffffffffffffffffffffffff021916908373ffffffffffffffffffffffffffffffffffffffff1602179055506060820151816003015550505050565b600081815481106103d057600080fd5b90600052602060002090600402016000915090508060000180546103f390610900565b80601f016020809104026020016040519081016040528092919081815260200182805461041f90610900565b801561046c5780601f106104415761010080835404028352916020019161046c565b820191906000526020600020905b81548152906001019060200180831161044f57829003601f168201915b50505050509080600101805461048190610900565b80601f01602080910402602001604051908101604052809291908181526020018280546104ad90610900565b80156104fa5780601f106104cf576101008083540402835291602001916104fa565b820191906000526020600020905b8154815290600101906020018083116104dd57829003601f168201915b5050505050908060020160009054906101000a900473ffffffffffffffffffffffffffffffffffffffff16908060030154905084565b6000604051905090565b600080fd5b600080fd5b6000819050919050565b61055781610544565b811461056257600080fd5b50565b6000813590506105748161054e565b92915050565b6000602082840312156105905761058f61053a565b5b600061059e84828501610565565b91505092915050565b600081519050919050565b600082825260208201905092915050565b60005b838110156105e15780820151818401526020810190506105c6565b60008484015250505050565b6000601f19601f8301169050919050565b6000610609826105a7565b61061381856105b2565b93506106238185602086016105c3565b61062c816105ed565b840191505092915050565b600073ffffffffffffffffffffffffffffffffffffffff82169050919050565b600061066282610637565b9050919050565b61067281610657565b82525050565b61068181610544565b82525050565b600060808201905081810360008301526106a181876105fe565b905081810360208301526106b581866105fe565b90506106c46040830185610669565b6106d16060830184610678565b95945050505050565b60006020820190506106ef6000830184610678565b92915050565b600080fd5b600080fd5b7f4e487b7100000000000000000000000000000000000000000000000000000000600052604160045260246000fd5b610737826105ed565b810181811067ffffffffffffffff82111715610756576107556106ff565b5b80604052505050565b6000610769610530565b9050610775828261072e565b919050565b600067ffffffffffffffff821115610795576107946106ff565b5b61079e826105ed565b9050602081019050919050565b82818337600083830152505050565b60006107cd6107c88461077a565b61075f565b9050828152602081018484840111156107e9576107e86106fa565b5b6107f48482856107ab565b509392505050565b600082601f830112610811576108106106f5565b5b81356108218482602086016107ba565b91505092915050565b600080604083850312156108415761084061053a565b5b600083013567ffffffffffffffff81111561085f5761085e61053f565b5b61086b858286016107fc565b925050602083013567ffffffffffffffff81111561088c5761088b61053f565b5b610898858286016107fc565b9150509250929050565b7f4e487b7100000000000000000000000000000000000000000000000000000000600052603260045260246000fd5b7f4e487b7100000000000000000000000000000000000000000000000000000000600052602260045260246000fd5b6000600282049050600182168061091857607f821691505b60208210810361092b5761092a6108d1565b5b50919050565b60008190508160005260206000209050919050565b60006020601f8301049050919050565b600082821b905092915050565b6000600883026109937fffffffffffffffffffffffffffffffffffffffffffffffffffffffffffffffff82610956565b61099d8683610956565b95508019841693508086168417925050509392505050565b6000819050919050565b60006109da6109d56109d084610544565b6109b5565b610544565b9050919050565b6000819050919050565b6109f4836109bf565b610a08610a00826109e1565b848454610963565b825550505050565b600090565b610a1d610a10565b610a288184846109eb565b505050565b5b81811015610a4c57610a41600082610a15565b600181019050610a2e565b5050565b601f821115610a9157610a6281610931565b610a6b84610946565b81016020851015610a7a578190505b610a8e610a8685610946565b830182610a2d565b50505b505050565b600082821c905092915050565b6000610ab460001984600802610a96565b1980831691505092915050565b6000610acd8383610aa3565b9150826002028217905092915050565b610ae6826105a7565b67ffffffffffffffff811115610aff57610afe6106ff565b5b610b098254610900565b610b14828285610a50565b600060209050601f831160018114610b475760008415610b35578287015190505b610b3f8582610ac1565b865550610ba7565b601f198416610b5586610931565b60005b82811015610b7d57848901518255600182019150602085019450602081019050610b58565b86831015610b9a5784890151610b96601f891682610aa3565b8355505b6001600288020188555050505b50505050505056fea264697066735822122087c98195b451cdceff789a62bc3124e054e3ffe4e85259ff62db2687a686ed4464736f6c634300081c0033",
  "linkReferences": {},
  "deployedLinkReferences": {}
}